:100000000C9462000C948A000C948A000C948A0070
:100010000C948A000C948A000C948A000C948A0038
:100020000C948A000C948A000C948A000C948A0028
:100030000C948A000C948A000C948A000C948A0018
:100040000C94E2040C948A000C94B0040C948A047E
:100050000C948A000C948A000C948A000C948A00F8
:100060000C948A000C948A000000000024002700F1
:100070002A0000000000250028002B0000000000DE
:1000800023002600290004040404040404040202DA
:100090000202020203030303030301020408102007
:1000A0004080010204081020010204081020000012
:1000B0000008000201000003040700000000000027
:1000C00000002C0511241FBECFEFD8E0DEBFCDBF4E
:1000D00012E0A0E0B1E0E6E9FEE002C005900D927A
:1000E000A830B107D9F722E0A8E0B2E001C01D9224
:1000F000A63CB207E1F710E0C2E6D0E004C02197C9
:10010000FE010E944307C136D107C9F70E94760558
:100110000C9449070C940000AF92BF92CF92DF92EB
:10012000EF92FF920F931F93CF93DF936C017B01AC
:100130008B01040F151FEB015E01AE18BF08C0173D
:10014000D10759F06991D601ED91FC910190F081B0
:10015000E02DC6010995892B79F7C501DF91CF9173
:100160001F910F91FF90EF90DF90CF90BF90AF90D5
:100170000895FC01538D448D252F30E0842F90E0AD
:10018000821B930B541710F0CF9608950197089592
:10019000FC01918D828D981761F0A28DAE0FBF2F5B
:1001A000B11D5D968C91928D9F5F9F73928F90E0B1
:1001B00008958FEF9FEF0895FC01918D828D981720
:1001C00031F0828DE80FF11D858D90E008958FEF5D
:1001D0009FEF0895FC01918D228D892F90E0805C26
:1001E0009F4F821B91098F739927089581E192E0B7
:1001F0000E94EA0021E0892B09F420E0822F089573
:1002000080E090E0892B29F00E94F60081110C9487
:1002100000000895FC01A48DA80FB92FB11DA35AA9
:10022000BF4F2C91848D90E001968F739927848F16
:10023000A689B7892C93A089B1898C918370806439
:100240008C93938D848D981306C00288F389E02DDA
:1002500080818F7D80830895EF92FF920F931F938B
:10026000CF93DF93EC0181E0888F9B8D8C8D981369
:100270001AC0E889F989808185FF15C09FB7F89475
:10028000EE89FF896083E889F989808183708064C1
:1002900080839FBF81E090E0DF91CF911F910F910C
:1002A000FF90EF900895F62E0B8D10E00F5F1F4F1B
:1002B0000F731127E02E8C8D8E110CC00FB607FC2A
:1002C000FACFE889F989808185FFF5CFCE010E94B8
:1002D0000A01F1CFEB8DEC0FFD2FF11DE35AFF4F1B
:1002E000F0829FB7F8940B8FEA89FB898081806246
:1002F000CFCFCF93DF93EC01888D8823B9F0AA8903
:10030000BB89E889F9898C9185FD03C0808186FDD0
:100310000DC00FB607FCF7CF8C9185FFF2CF80811F
:1003200085FFEDCFCE010E940A01E9CFDF91CF9189
:100330000895833081F028F4813099F08230A9F05B
:1003400008958730A9F08830C9F08430B1F48091E5
:1003500080008F7D03C0809180008F778093800024
:10036000089584B58F7784BD089584B58F7DFBCFC4
:100370008091B0008F778093B00008958091B00095
:100380008F7DF9CF1F93CF93DF93282F30E0F901B2
:10039000E255FF4F8491F901E656FF4FD491F901E0
:1003A000EA57FF4FC491CC23A9F0162F81110E9468
:1003B0009901EC2FF0E0EE0FFF1FEE58FF4FA591D3
:1003C000B4918FB7F894EC91111108C0D095DE2349
:1003D000DC938FBFDF91CF911F910895DE2BF8CF73
:1003E000CF93DF9390E0FC01E656FF4F24918A57AC
:1003F0009F4FFC0184918823D1F090E0880F991FD2
:10040000FC01E859FF4FA591B491FC01EE58FF4F54
:10041000C591D49161110EC09FB7F8948C91E22FD1
:10042000E0958E238C932881E223E8839FBFDF91A0
:10043000CF9108958FB7F894EC91E22BEC938FBF96
:10044000F6CF8E50806480937C0080917A00806427
:1004500080937A0080917A0086FDFCCF80917800AD
:100460009091790008953FB7F89480910D02909192
:100470000E02A0910F02B091100226B5A89B05C0F4
:100480002F3F19F00196A11DB11D3FBFBA2FA92F13
:10049000982F8827BC01CD01620F711D811D911D10
:1004A00042E0660F771F881F991F4A95D1F708957C
:1004B0008F929F92AF92BF92CF92DF92EF92FF9274
:1004C0000E9433024B015C0180EDC82E87E0D82EDC
:1004D000E12CF12C0E943302681979098A099B09E1
:1004E000683E734081059105A8F321E0C21AD10846
:1004F000E108F10888EE880E83E0981EA11CB11C6B
:10050000C114D104E104F10429F7FF90EF90DF90CA
:10051000CF90BF90AF909F908F900895089590E0F6
:1005200080E00895CF93DF93EC0160E08E810E941C
:10053000C20161E08E810E94C20160E08E810E9452
:10054000C2018BE891E00197F1F7DF91CF91089517
:10055000CF92DF92EF92FF920F931F93CF93DF938F
:100560006C017C0187E0E80EF11CD0E0C0E0062FB2
:1005700010E0B8010C2E02C0759567950A94E2F759
:100580006170F70181917F010E94C2012196C43000
:10059000D10579F7C601DF91CF911F910F91FF909F
:1005A000EF90DF90CF900C949202CF92DF92EF9277
:1005B000FF920F931F93CF93DF93EC01F62E642FDE
:1005C0008C810E94C2018D818F3F19F060E00E94F2
:1005D000C2010F2D10E08F8584FF25C06E0187E0DA
:1005E000C80ED11CF12CE12CB8010E2C02C075955F
:1005F00067950A94E2F76170F60181916F010E949C
:10060000C201FFEFEF1AFF0A88E0E816F10461F774
:10061000CE01DF91CF911F910F91FF90EF90DF906E
:10062000CF900C949202B80184E0759567958A95F5
:10063000E1F7CE010E94A8026F2DCE01DF91CF918C
:100640001F910F91FF90EF90DF90CF900C94A80234
:1006500040E0682F8EEA92E00C94D50281E00E947F
:1006600028038BE39FE10197F1F70895CF93DF9380
:10067000813029F09091BD0298609093BD028093E3
:10068000C1021092C20280E48093C30280E1809391
:10069000C40280E58093C50261E08091B2020E94AD
:1006A000F0018091B3028F3F19F061E00E94F001E8
:1006B00061E08091B4020E94F001CEEAD2E09E0196
:1006C0002E5A32408091BD0284FD0BC084E090E040
:1006D00021962817390744F461E08E810E94F001C9
:1006E000EECF88E090E0F4CF8BE39DE00197F1F747
:1006F00060E08091B2020E94C20160E08091B40289
:100700000E94C2018091B3028F3F19F060E00E9405
:10071000C2018091BD0284FD34C063E08EEA92E0A4
:100720000E94A802CBE4D6E4CE010197F1F763E082
:100730008EEA92E00E94A8022197F1F763E08EEA28
:1007400092E00E94A80283E592E00197F1F762E04F
:100750008EEA92E00E94A8028091BD0280620E940F
:10076000280384E08093BE028CE00E9428030E944C
:100770002E0382E08093BF0286E0DF91CF910C943C
:10078000280380620E9428038BE496E40197F1F726
:100790008091BD0280620E94280383E592E0019768
:1007A000F1F78091BD0280620E942803D5CF90911D
:1007B000C102891710F08FEF890FE82FF0E0E255A2
:1007C000FD4F848980680C94280341E00E94D50283
:1007D00081E090E00895FB0101900020E9F7319756
:1007E000AF01461B570BDC01ED91FC910280F381B8
:1007F000E02D0994BC018EEA92E00C94EB038F92F9
:100800009F92AF92BF92CF92DF92EF92FF920F939F
:100810001F93CF93DF93CDB7DEB7A1970FB6F894B0
:10082000DEBF0FBECDBF6C01990FEE08FF08F7FECB
:100830004BC06DE281E192E00E942C018C012227E5
:100840003327A9012C193D094E095F0919A2CE01D0
:1008500081967C019AE0892E912CA12CB12CCA01A1
:10086000B901A50194010E942107605DF70162931F
:100870007F01211531054105510589F790E080E0A0
:10088000309729F0BF0181E192E00E94EB03080F4D
:10089000191F6EE171E081E192E00E94EB03800F8D
:1008A000911FA1960FB6F894DEBF0FBECDBFDF91AA
:1008B000CF911F910F91FF90EF90DF90CF90BF905D
:1008C000AF909F908F900895A701960119A28E0175
:1008D0000F5D1F4F8AE0C82ED12CE12CF12CCA01EC
:1008E000B901A70196010E942107605DF80162939A
:1008F0008F01211531054105510589F7309739F0F0
:10090000BF0181E192E00E94EB038C01C2CF10E0B5
:1009100000E0BFCF1F920F920FB60F9211242F93BA
:100920003F934F935F936F937F938F939F93AF9377
:10093000BF93EF93FF9381E192E00E940A01FF9140
:10094000EF91BF91AF919F918F917F916F915F9147
:100950004F913F912F910F900FBE0F901F901895C0
:100960001F920F920FB60F9211242F938F939F9384
:10097000EF93FF93E0912102F09122028081E091B8
:100980002702F091280282FD1BC0908180912A02EB
:100990008F5F8F7320912B02821741F0E0912A0222
:1009A000F0E0EF5EFD4F958F80932A02FF91EF916B
:1009B0009F918F912F910F900FBE0F901F901895C0
:1009C0008081F4CF1F920F920FB60F9211242F93B4
:1009D0003F938F939F93AF93BF9380910902909120
:1009E0000A02A0910B02B0910C023091080223E0A0
:1009F000230F2D3758F50196A11DB11D2093080234
:100A00008093090290930A02A0930B02B0930C0208
:100A100080910D0290910E02A0910F02B0911002F0
:100A20000196A11DB11D80930D0290930E02A0931B
:100A30000F02B0931002BF91AF919F918F913F91A0
:100A40002F910F900FBE0F901F90189526E8230F3F
:100A50000296A11DB11DD2CFE1E1F2E01382128214
:100A600088EE93E0A0E0B0E084839583A683B7830B
:100A700084E091E09183808385EC90E09587848782
:100A800084EC90E09787868780EC90E0918B808B58
:100A900081EC90E0938B828B82EC90E0958B848B41
:100AA00086EC90E0978B868B118E128E138E148EAF
:100AB000EEEAF2E01382128286E191E09183808374
:100AC00082E084838FEF858383E0868384E087835D
:100AD00085E0808786E0818787E082871386148699
:100AE00015861686178681E00C943603789484B5B3
:100AF000826084BD84B5816084BD85B5826085BD1A
:100B000085B5816085BD80916E00816080936E00A7
:100B10001092810080918100826080938100809199
:100B2000810081608093810080918000816080934A
:100B300080008091B10084608093B1008091B0000A
:100B400081608093B00080917A00846080937A0005
:100B500080917A00826080937A0080917A0081602F
:100B600080937A0080917A00806880937A00109256
:100B7000C10061E08CE00E94F00161E08BE00E9426
:100B8000F00161E08AE00E94F00161E08BE00E94E8
:100B9000F00160E08DE00E94F00161E089E00E94D8
:100BA000F001E0912102F091220282E08083E09145
:100BB0001D02F0911E021082E0911F02F0912002AE
:100BC0008FEC808310922902E0912502F091260299
:100BD00086E08083E0912302F0912402808180618D
:100BE0008083E0912302F0912402808188608083D9
:100BF000E0912302F0912402808180688083E0915B
:100C00002302F091240280818F7D808382E00E9404
:100C1000360380E00E94D70381E291E00E94FA034C
:100C200081E00E94D7038DE291E00E94FA030E94C6
:100C300058020E942E03CBEBD0E007EA10E093E9C4
:100C4000E92E90E0F92E20E0C22E20E0D22E8EE098
:100C50000E9421025C010E94FF038FE1A816B104EB
:100C60000CF49FC061E08BE00E94C20183E00E940F
:100C7000360380E00E94D70388E391E00E94FA03E4
:100C800081E00E94D70385E491E00E94FA030E946C
:100C900058020E942E0380E10E9421025C010E9402
:100CA000FF03E1E9AE16E1E0BE060CF48EC061E0A0
:100CB0008AE00E94C20187E00E94360380E00E9421
:100CC000D70389E691E00E94FA0381E00E94D703EE
:100CD00086E791E00E94FA030E9458020E942E03C8
:100CE0008FE00E9421025C010E94FF03F9ECAF1625
:100CF000B1040CF07EC061E08CE00E94C20189E08A
:100D00000E94360380E00E94D7038EE991E00E94A2
:100D1000FA0381E00E94D7038BEA91E00E94FA0374
:100D20000E9458020E942E03FE018491F801A490B3
:100D3000F701B490BB2009F470C081110E949901A1
:100D4000EB2DF0E0EE0FFF1FE458FF4FA591B4919B
:100D50008C91A82209F461C061E089E00E94C2017F
:100D600085E00E94360380E00E94D7038BEC91E07F
:100D70000E94FA0381E00E94D70389ED91E00E946E
:100D8000FA030E9458020E942E03C114D10409F4F0
:100D90005ECF0E94F600882309F459CF0E9400001C
:100DA00056CF60E08BE00E94C20184E00E943603CF
:100DB00080E00E94D7038FE491E00E94FA0381E073
:100DC0000E94D7038EE591E060CF60E08AE00E9448
:100DD000C20188E00E94360380E00E94D70381E8C8
:100DE00091E00E94FA0381E00E94D70382E991E03A
:100DF00071CF60E08CE00E94C2018AE00E9436035D
:100E000080E00E94D70385EB91E00E94FA0381E025
:100E10000E94D70380EC91E081CF60E089E00E94DE
:100E2000C20186E00E94360380E00E94D70387EE6D
:100E300091E00E94FA0381E00E94D70389EF91E0DC
:100E40009ECFA1E21A2EAA1BBB1BFD010DC0AA1F3B
:100E5000BB1FEE1FFF1FA217B307E407F50720F023
:100E6000A21BB30BE40BF50B661F771F881F991F9E
:100E70001A9469F760957095809590959B01AC01E7
:100E8000BD01CF010895EE0FFF1F0590F491E02DF5
:060E90000994F894FFCF65
:100E9600000000002C018C00B9007901EA00C800AE
:100EA600DC0000000000E5038C008F028E020D0AB4
:100EB60000475245454E20484F555345004155542D
:100EC6004F4D4154494F4E0054656D702069732053
:100ED600486967680046414E206973204F4E0054AA
:100EE600656D70206973204E6F726D616C004641AE
:100EF6004E206973204F4646004C6F77204D6F6930
:100F060073747572650050756D70206973204F4E4D
:100F1600004E6F726D616C204D6F697374757265EA
:100F2600200050756D70206973204F4646004E694B
:100F360067687420697320444554004C4544206911
:100F460073204F4E00446179206973204445540054
:100F56004C4544206973204F4646004D6F74696FB7
:100F66006E20697320444554004D6F74696F6E207E
:100F76004C4544204F4E004D6F74696F6E20697367
:100F8600206E6F7420444554004D6F74696F6E2057
:080F96004C4544204F46460083
:00000001FF
